{
  "_format": "hh-sol-artifact-1",
  "contractName": "SomniaMemory",
  "sourceName": "contracts/SomniaMemory.sol",
  "abi": [
    {
      "anonymous": false,
      "inputs": [
        {
          "indexed": true,
          "internalType": "uint256",
          "name": "id",
          "type": "uint256"
        },
        {
          "indexed": true,
          "internalType": "address",
          "name": "player",
          "type": "address"
        },
        {
          "indexed": false,
          "internalType": "string",
          "name": "npcName",
          "type": "string"
        },
        {
          "indexed": false,
          "internalType": "string",
          "name": "memoryText",
          "type": "string"
        },
        {
          "indexed": false,
          "internalType": "uint256",
          "name": "timestamp",
          "type": "uint256"
        }
      ],
      "name": "MemoryAdded",
      "type": "event"
    },
    {
      "inputs": [
        {
          "internalType": "string",
          "name": "npcName",
          "type": "string"
        },
        {
          "internalType": "string",
          "name": "memoryText",
          "type": "string"
        }
      ],
      "name": "createMemory",
      "outputs": [],
      "stateMutability": "nonpayable",
      "type": "function"
    },
    {
      "inputs": [],
      "name": "getMemoriesCount",
      "outputs": [
        {
          "internalType": "uint256",
          "name": "",
          "type": "uint256"
        }
      ],
      "stateMutability": "view",
      "type": "function"
    },
    {
      "inputs": [
        {
          "internalType": "address",
          "name": "player",
          "type": "address"
        }
      ],
      "name": "getMemoriesForPlayer",
      "outputs": [
        {
          "components": [
            {
              "internalType": "address",
              "name": "player",
              "type": "address"
            },
            {
              "internalType": "string",
              "name": "npcName",
              "type": "string"
            },
            {
              "internalType": "string",
              "name": "memoryText",
              "type": "string"
            },
            {
              "internalType": "uint256",
              "name": "timestamp",
              "type": "uint256"
            }
          ],
          "internalType": "struct SomniaMemory.Memory[]",
          "name": "",
          "type": "tuple[]"
        }
      ],
      "stateMutability": "view",
      "type": "function"
    },
    {
      "inputs": [
        {
          "internalType": "uint256",
          "name": "id",
          "type": "uint256"
        }
      ],
      "name": "getMemory",
      "outputs": [
        {
          "components": [
            {
              "internalType": "address",
              "name": "player",
              "type": "address"
            },
            {
              "internalType": "string",
              "name": "npcName",
              "type": "string"
            },
            {
              "internalType": "string",
              "name": "memoryText",
              "type": "string"
            },
            {
              "internalType": "uint256",
              "name": "timestamp",
              "type": "uint256"
            }
          ],
          "internalType": "struct SomniaMemory.Memory",
          "name": "",
          "type": "tuple"
        }
      ],
      "stateMutability": "view",
      "type": "function"
    },
    {
      "inputs": [
        {
          "internalType": "uint256",
          "name": "",
          "type": "uint256"
        }
      ],
      "name": "memories",
      "outputs": [
        {
          "internalType": "address",
          "name": "player",
          "type": "address"
        },
        {
          "internalType": "string",
          "name": "npcName",
          "type": "string"
        },
        {
          "internalType": "string",
          "name": "memoryText",
          "type": "string"
        },
        {
          "internalType": "uint256",
          "name": "timestamp",
          "type": "uint256"
        }
      ],
      "stateMutability": "view",
      "type": "function"
    }
  ],
  "bytecode": "0x608060405234801561001057600080fd5b506113ea806100206000396000f3fe608060405234801561001057600080fd5b50600436106100575760003560e01c80632257406e1461005c57806323fe7a5d1461008c578063481e6d4a146100bc5780634971ff00146100da578063d8cd64791461010d575b600080fd5b61007660048036038101906100719190610a4c565b610129565b6040516100839190610bc3565b60405180910390f35b6100a660048036038101906100a19190610c11565b6102e9565b6040516100b39190610d6a565b60405180910390f35b6100c4610675565b6040516100d19190610d9b565b60405180910390f35b6100f460048036038101906100ef9190610a4c565b610681565b6040516101049493929190610e0f565b60405180910390f35b61012760048036038101906101229190610ec7565b6107f1565b005b6101316109ce565b6000828154811061014557610144610f48565b5b90600052602060002090600402016040518060800160405290816000820160009054906101000a900473ffffffffffffffffffffffffffffffffffffffff1673ffffffffffffffffffffffffffffffffffffffff1673ffffffffffffffffffffffffffffffffffffffff1681526020016001820180546101c490610fa6565b80601f01602080910402602001604051908101604052809291908181526020018280546101f090610fa6565b801561023d5780601f106102125761010080835404028352916020019161023d565b820191906000526020600020905b81548152906001019060200180831161022057829003601f168201915b5050505050815260200160028201805461025690610fa6565b80601f016020809104026020016040519081016040528092919081815260200182805461028290610fa6565b80156102cf5780601f106102a4576101008083540402835291602001916102cf565b820191906000526020600020905b8154815290600101906020018083116102b257829003601f168201915b505050505081526020016003820154815250509050919050565b60606000808054905090506000805b8281101561039a578473ffffffffffffffffffffffffffffffffffffffff166000828154811061032b5761032a610f48565b5b906000526020600020906004020160000160009054906101000a900473ffffffffffffffffffffffffffffffffffffffff1673ffffffffffffffffffffffffffffffffffffffff160361038757818061038390611006565b9250505b808061039290611006565b9150506102f8565b5060008167ffffffffffffffff8111156103b7576103b661104e565b5b6040519080825280602002602001820160405280156103f057816020015b6103dd6109ce565b8152602001906001900390816103d55790505b5090506000805b84811015610668578673ffffffffffffffffffffffffffffffffffffffff166000828154811061042a57610429610f48565b5b906000526020600020906004020160000160009054906101000a900473ffffffffffffffffffffffffffffffffffffffff1673ffffffffffffffffffffffffffffffffffffffff1603610655576000818154811061048b5761048a610f48565b5b90600052602060002090600402016040518060800160405290816000820160009054906101000a900473ffffffffffffffffffffffffffffffffffffffff1673ffffffffffffffffffffffffffffffffffffffff1673ffffffffffffffffffffffffffffffffffffffff16815260200160018201805461050a90610fa6565b80601f016020809104026020016040519081016040528092919081815260200182805461053690610fa6565b80156105835780601f1061055857610100808354040283529160200191610583565b820191906000526020600020905b81548152906001019060200180831161056657829003601f168201915b5050505050815260200160028201805461059c90610fa6565b80601f01602080910402602001604051908101604052809291908181526020018280546105c890610fa6565b80156106155780601f106105ea57610100808354040283529160200191610615565b820191906000526020600020905b8154815290600101906020018083116105f857829003601f168201915b5050505050815260200160038201548152505083838151811061063b5761063a610f48565b5b6020026020010181905250818061065190611006565b9250505b808061066090611006565b9150506103f7565b5081945050505050919050565b60008080549050905090565b6000818154811061069157600080fd5b90600052602060002090600402016000915090508060000160009054906101000a900473ffffffffffffffffffffffffffffffffffffffff16908060010180546106da90610fa6565b80601f016020809104026020016040519081016040528092919081815260200182805461070690610fa6565b80156107535780601f1061072857610100808354040283529160200191610753565b820191906000526020600020905b81548152906001019060200180831161073657829003601f168201915b50505050509080600201805461076890610fa6565b80601f016020809104026020016040519081016040528092919081815260200182805461079490610fa6565b80156107e15780601f106107b6576101008083540402835291602001916107e1565b820191906000526020600020905b8154815290600101906020018083116107c457829003601f168201915b5050505050908060030154905084565b600060405180608001604052803373ffffffffffffffffffffffffffffffffffffffff16815260200186868080601f016020809104026020016040519081016040528093929190818152602001838380828437600081840152601f19601f82011690508083019250505050505050815260200184848080601f016020809104026020016040519081016040528093929190818152602001838380828437600081840152601f19601f82011690508083019250505050505050815260200142815250908060018154018082558091505060019003906000526020600020906004020160009091909190915060008201518160000160006101000a81548173ffffffffffffffffffffffffffffffffffffffff021916908373ffffffffffffffffffffffffffffffffffffffff16021790555060208201518160010190816109379190611229565b50604082015181600201908161094d9190611229565b506060820151816003015550506000600160008054905061096e91906112fb565b90503373ffffffffffffffffffffffffffffffffffffffff16817f413648334b33563b01a59e5c457e8d0f37d14aeca166ad9360a9d7d6e4c870ef87878787426040516109bf95949392919061136b565b60405180910390a35050505050565b6040518060800160405280600073ffffffffffffffffffffffffffffffffffffffff1681526020016060815260200160608152602001600081525090565b600080fd5b600080fd5b6000819050919050565b610a2981610a16565b8114610a3457600080fd5b50565b600081359050610a4681610a20565b92915050565b600060208284031215610a6257610a61610a0c565b5b6000610a7084828501610a37565b91505092915050565b600073ffffffffffffffffffffffffffffffffffffffff82169050919050565b6000610aa482610a79565b9050919050565b610ab481610a99565b82525050565b600081519050919050565b600082825260208201905092915050565b60005b83811015610af4578082015181840152602081019050610ad9565b60008484015250505050565b6000601f19601f8301169050919050565b6000610b1c82610aba565b610b268185610ac5565b9350610b36818560208601610ad6565b610b3f81610b00565b840191505092915050565b610b5381610a16565b82525050565b6000608083016000830151610b716000860182610aab565b5060208301518482036020860152610b898282610b11565b91505060408301518482036040860152610ba38282610b11565b9150506060830151610bb86060860182610b4a565b508091505092915050565b60006020820190508181036000830152610bdd8184610b59565b905092915050565b610bee81610a99565b8114610bf957600080fd5b50565b600081359050610c0b81610be5565b92915050565b600060208284031215610c2757610c26610a0c565b5b6000610c3584828501610bfc565b91505092915050565b600081519050919050565b600082825260208201905092915050565b6000819050602082019050919050565b6000608083016000830151610c826000860182610aab565b5060208301518482036020860152610c9a8282610b11565b91505060408301518482036040860152610cb48282610b11565b9150506060830151610cc96060860182610b4a565b508091505092915050565b6000610ce08383610c6a565b905092915050565b6000602082019050919050565b6000610d0082610c3e565b610d0a8185610c49565b935083602082028501610d1c85610c5a565b8060005b85811015610d585784840389528151610d398582610cd4565b9450610d4483610ce8565b925060208a01995050600181019050610d20565b50829750879550505050505092915050565b60006020820190508181036000830152610d848184610cf5565b905092915050565b610d9581610a16565b82525050565b6000602082019050610db06000830184610d8c565b92915050565b610dbf81610a99565b82525050565b600082825260208201905092915050565b6000610de182610aba565b610deb8185610dc5565b9350610dfb818560208601610ad6565b610e0481610b00565b840191505092915050565b6000608082019050610e246000830187610db6565b8181036020830152610e368186610dd6565b90508181036040830152610e4a8185610dd6565b9050610e596060830184610d8c565b95945050505050565b600080fd5b600080fd5b600080fd5b60008083601f840112610e8757610e86610e62565b5b8235905067ffffffffffffffff811115610ea457610ea3610e67565b5b602083019150836001820283011115610ec057610ebf610e6c565b5b9250929050565b60008060008060408587031215610ee157610ee0610a0c565b5b600085013567ffffffffffffffff811115610eff57610efe610a11565b5b610f0b87828801610e71565b9450945050602085013567ffffffffffffffff811115610f2e57610f2d610a11565b5b610f3a87828801610e71565b925092505092959194509250565b7f4e487b7100000000000000000000000000000000000000000000000000000000600052603260045260246000fd5b7f4e487b7100000000000000000000000000000000000000000000000000000000600052602260045260246000fd5b60006002820490506001821680610fbe57607f821691505b602082108103610fd157610fd0610f77565b5b50919050565b7f4e487b7100000000000000000000000000000000000000000000000000000000600052601160045260246000fd5b600061101182610a16565b91507fffffffffffffffffffffffffffffffffffffffffffffffffffffffffffffffff820361104357611042610fd7565b5b600182019050919050565b7f4e487b7100000000000000000000000000000000000000000000000000000000600052604160045260246000fd5b60008190508160005260206000209050919050565b60006020601f8301049050919050565b600082821b905092915050565b6000600883026110df7fffffffffffffffffffffffffffffffffffffffffffffffffffffffffffffffff826110a2565b6110e986836110a2565b95508019841693508086168417925050509392505050565b6000819050919050565b600061112661112161111c84610a16565b611101565b610a16565b9050919050565b6000819050919050565b6111408361110b565b61115461114c8261112d565b8484546110af565b825550505050565b600090565b61116961115c565b611174818484611137565b505050565b5b818110156111985761118d600082611161565b60018101905061117a565b5050565b601f8211156111dd576111ae8161107d565b6111b784611092565b810160208510156111c6578190505b6111da6111d285611092565b830182611179565b50505b505050565b600082821c905092915050565b6000611200600019846008026111e2565b1980831691505092915050565b600061121983836111ef565b9150826002028217905092915050565b61123282610aba565b67ffffffffffffffff81111561124b5761124a61104e565b5b6112558254610fa6565b61126082828561119c565b600060209050601f8311600181146112935760008415611281578287015190505b61128b858261120d565b8655506112f3565b601f1984166112a18661107d565b60005b828110156112c9578489015182556001820191506020850194506020810190506112a4565b868310156112e657848901516112e2601f8916826111ef565b8355505b6001600288020188555050505b505050505050565b600061130682610a16565b915061131183610a16565b925082820390508181111561132957611328610fd7565b5b92915050565b82818337600083830152505050565b600061134a8385610dc5565b935061135783858461132f565b61136083610b00565b840190509392505050565b6000606082019050818103600083015261138681878961133e565b9050818103602083015261139b81858761133e565b90506113aa6040830184610d8c565b969550505050505056fea26469706673582212206ef01281804d77c7ceb5880f8117bfaf28223d42051f7e1a1b8df7ecbf83120f64736f6c63430008120033",
  "linkReferences": {},
  "deployedLinkReferences": {}
}